:100000000C9434000C943E000C943E000C943E0082
:100010000C943E000C943E000C943E000C943E0068
:100020000C943E000C943E000C943E000C943E0058
:100030000C943E000C943E000C943E000C943E0048
:100040000C943E000C943E000C943E000C943E0038
:100050000C943E000C943E000C943E000C943E0028
:100060000C943E000C943E0011241FBECFEFD8E04C
:10007000DEBFCDBF0E9440000C9458000C940000DD
:10008000259A84B1836084B95098519A599A20E294
:1000900093E0489BFECF85B1822785B985B189273A
:1000A00085B9EFE3FCE93197F1F700C00000F1CF2B
:0400B000F894FFCFF2
:00000001FF
